:100000000C9455000C9474000C9474000C947400BF
:100010000C9474000C9474000C9474000C94740090
:100020000C9474000C9474000C9474000C94740080
:100030000C9474000C9474000C94D4110C947400FF
:100040000C9474000C9474000C942A350C94740075
:100050000C9474000C9474000C9474000C94740050
:100060000C9474000C9474000C9474000C94740040
:100070000C9474000C9474000C940A010C94740099
:100080000C9474000C9474000C94740005A84CCD6E
:10009000B2D44EB93836A9020C50B9918688083CC2
:1000A000A6AAAA2ABE000000803F11241FBECFEFDF
:1000B000D0E1DEBFCDBF13E0A0E0B1E0E8E7F9E7B3
:1000C00000E00BBF02C007900D92A633B107D9F72D
:1000D00019E0A6E3B3E001C01D92A739B107E1F72B
:1000E0000E94B1040C94D2350C94000094EA9093D1
:1000F00074009091740097FFFCCF9AE09093730086
:1001000094E8909374009091740097FFFCCF8093D3
:10011000730084E8809374008091740087FFFCCFA3
:1001200084E98093740084EA809374008091740061
:1001300087FFFCCF8BE08093730084E8809374008A
:100140008091740087FFFCCF84E8809374008091D5
:10015000740087FFFCCF8091730094E99093740042
:10016000089594EA909374009091740097FFFCCFE7
:100170009AE09093730094E89093740090917400C7
:1001800097FFFCCF8093730084E880937400809184
:10019000740087FFFCCF6093730084E88093740041
:1001A0008091740087FFFCCF84E9809374000895E8
:1001B00010929B0088E980939A0086E080939D00CE
:1001C000109298008FE580939900789408951F937A
:1001D0001FEF1093730081E4809370000E94160B50
:1001E0000E9416350E94D8000E94100A1FBC85E0AC
:1001F0008EBD1DBD80E78CBD84E087BF78948FE005
:1002000087BB81B3807F81BB84B3806F84BB18BA06
:100210001F9108951F920F920FB60F9211248F9382
:10022000DF93CF930F92CDB7DEB780919C00898387
:1002300080919B00887BE1F381E080933603898184
:10024000809337030F90CF91DF918F910F900FBE66
:100250000F901F901895DF93CF930F92CDB7DEB715
:1002600080913703898310923703F89410923603F4
:10027000789489810F90CF91DF91089590919B00A0
:1002800095FFFCCF80939C000895CF93DF93E4E724
:10029000F0E094EA9083A1EEB2E01197F1F700004C
:1002A000A3E7B0E09EE09C9394E89083C1EED2E097
:1002B0002197F1F700008C93908381EE92E00197F3
:1002C000F1F7000084E98083DF91CF910895EF92E8
:1002D000FF920F931F93DF93CF9300D0CDB7DEB77C
:1002E000082F162F843070F5643160F58BE1498357
:1002F0005A830E9445018CE40E944501812F0E948F
:100300004501802F0E94450180E791E00197F1F7B8
:1003100000C0E12EFF2449815A81042F152F06C009
:100320000E94450194EC9A95F1F700C0E4E1EE16C5
:10033000F10444F4F80181918F010894E11CF11C4F
:10034000882371F70F900F90CF91DF911F910F913C
:10035000FF90EF9008951F93DF93CF9300D0CDB718
:10036000DEB7182F8430F0F46431E0F48BE12A8397
:1003700069830E9445018CE40E9445016981862FB2
:100380000E944501812F0E94450180E791E001977D
:10039000F1F700C02A81822F0E94450194EC9A95C2
:1003A000F1F700C00F900F90CF91DF911F9108954A
:1003B0008BE10E94450183E40E94450186E696EEAA
:1003C000A0E081509040A040E1F70895EF92FF92A5
:1003D0000F931F93182FF62EE42E842F64E60E94AD
:1003E000873C082F282F30E0205D3F4F442737FD02
:1003F0004095542F812F6F2D0E94AB018CE9089FEF
:10040000002D11240E0D802F6AE00E94873CE82EFB
:100410006F2D6F5F282F30E0205D3F4F442737FD61
:100420004095542F812F0E94AB016F2D6E5F26EFF8
:10043000E29E202D1124200F30E0205D3F4F442705
:1004400037FD4095542F812F0E94AB011F910F91D2
:10045000FF90EF900895EF92FF920F931F93CF9329
:10046000DF9320E030E04AE1E42EF12C11C00D9141
:100470001D91C191D1910C171D0741F44C305105CC
:10048000C1F04F5F5F4F4D30510589F72F5F3F4FF0
:10049000261737078CF4A82FB92F2E9DF0012F9D1A
:1004A000F00D3E9DF00D1124E856FB4F40E050E06A
:1004B000DECF21E030E002C020E030E0C901DF9172
:1004C000CF911F910F91FF90EF900895EF92FF92BF
:1004D0000F931F93CF93DF93EC018DB79EB70897CF
:1004E0000FB6F8949EBF0FBE8DBFEDB7FEB7319625
:1004F00080E091E0ADB7BEB712969C938E931197B2
:1005000088819981938382838A819B819583848367
:100510008C819D81978386830E94D5350F900F90A3
:10052000EDB7FEB731965EE0E52E51E0F52EADB7A2
:10053000BEB71296FC92EE9211978E819F819383A3
:10054000828388859985958384830E94D53500D0E0
:10055000EDB7FEB7319609E111E0ADB7BEB712961F
:100560001C930E9311978A859B85938382838C8538
:100570009D85958384838E859F85978386830E943E
:10058000D5350F900F90EDB7FEB73196ADB7BEB72A
:100590001296FC92EE9211978889998993838283AF
:1005A0008A899B89958384830E94D53500D0EDB7D5
:1005B000FEB73196ADB7BEB712961C930E93119746
:1005C0008C899D89938382838E899F899583848377
:1005D000888D998D978386830E94D5358DB79EB778
:1005E00008960FB6F8949EBF0FBE8DBFDF91CF91D6
:1005F0001F910F91FF90EF900895FC0180819181F0
:1006000018161906ACF4248135818217930781F4FA
:10061000248535858217930759F081E090E0909307
:1006200043038093420390933F0380933E0319C09A
:100630008489958918161906BCF4208D318D82178E
:10064000930791F4248535858217930769F081E03B
:1006500090E09093570380935603909353038093B5
:10066000520321E030E002C020E030E0C9010895EB
:10067000CF92DF92EF92FF920F931F93DF93CF936E
:10068000CDB7DEB760970FB6F894DEBF0FBECDBF13
:100690006C01FC016081718144815581A489B58917
:1006A000E08CF18C9A012A0F3B1F260F371F2E0D6D
:1006B0003F1D86E090E00091A6011091A701801BEC
:1006C000910B880F991F2817390709F056C0161685
:1006D00017060CF052C0141615060CF04EC01A1670
:1006E0001B060CF04AC01E141F040CF046C0641711
:1006F000750709F042C026E832E080E090E0AE01E4
:100700004F5F5F4FF901A191B1919F01AA0FBB1FEC
:10071000AC0DBD1D6D917C911197009779F0DC01B6
:100720001197AA0FBB1FA40FB51F0D90BC91A02D50
:100730006A177B0711F185309105FCF41616170630
:100740004CF4DC01AA0FBB1FA40FB51F11967C93BC
:100750006E930196F2E026393F07A1F60197880FC4
:10076000991F8C0F9D1F21E030E0FC0141815281D7
:1007700089819A814817590711F420E030E0C901B6
:1007800060960FB6F894DEBF0FBECDBFCF91DF915C
:100790001F910F91FF90EF90DF90CF9008954F92AF
:1007A0005F926F927F928F929F92AF92BF92CF9201
:1007B000DF92EF92FF920F931F93CF93DF933C0151
:1007C0006B01EA01890180915E0390915F030196BC
:1007D00090935F0380935E0380913C0390913D036F
:1007E000009709F0ADC080915803909159034817C4
:1007F00059070CF0A5C0C901BA010E942B0200974D
:1008000009F09EC0FE01EE0FFF1FE85BFB4FD18297
:10081000C0828AE190E0C89FF001C99FF00DD89F87
:10082000F00D1124E856FB4FD8018AE10D9001929A
:100830008150E1F780915A0390915B03009729F46E
:10084000C8010E94FD02009741F580915A039091E2
:100850005B038130910529F4C8010E943803009799
:10086000E1F47601EE0CFF1CE00EF11EC60144E03F
:10087000880F991F4A95E1F734EBA32E31E0B32E90
:10088000A80EB91E24EC422E21E0522E480E591E0D
:100890004E010894811C911C14C081E090E090935B
:1008A0003D0380933C03AEEBB3E0E8E4F4E080E585
:1008B00001900D928150E1F7D0935903C0935803F2
:1008C0003FC0F501619171915F0177FD36C06615FA
:1008D000770599F1EB01CC0FDD1FFE01E25CFC4FC7
:1008E00080819181009749F5F701808191819093F2
:1008F000AD038093AC03C00FD11F88819981918390
:1009000080838091AC039091AD0399838883C60165
:10091000A40198010E94CF03F701808191819093F7
:10092000AD038093AC03888199819183808380910A
:10093000AC039091AD0399838883A414B50409F6A0
:10094000DF91CF911F910F91FF90EF90DF90CF90AB
:10095000BF90AF909F908F907F906F905F904F90DF
:1009600008952F923F924F925F926F927F928F9253
:100970009F92AF92BF92CF92DF92EF92FF920F932E
:100980001F93DF93CF9300D000D0CDB7DEB70E9486
:10099000E7008EE161E00E94B1008EE165E00E9417
:1009A000B1008EE164E10E94B1008EE160E10E943D
:1009B000B1000E94C1348BE00E94F93482E30E94AE
:1009C000111480E063E10E94DB348823D1F30FEF40
:1009D0001FE726E1015010402040E1F700C0000071
:1009E00080E090E0DC018093B0089093B108A09380
:1009F000B208B093B3082091B0083091B10840918B
:100A0000B2085091B3082093AC083093AD084093DE
:100A1000AE085093AF082091AC083091AD084091DA
:100A2000AE085091AF082093A8083093A9084093CE
:100A3000AA085093AB088093BC089093BD08A0937C
:100A4000BE08B093BF088091BC089091BD08A091EA
:100A5000BE08B091BF088093B8089093B908A093DE
:100A6000BA08B093BB08C39A2FEF3FE744E0215088
:100A700030404040E1F700C00000C39868E9C62E4E
:100A800064E0D62E50E1A52E54E0B52E49E2842E26
:100A900041E0942E33E3632E31E0732E2DE3422E9A
:100AA00021E0522E96E5292E91E0392EB49914C0FA
:100AB0008091380390913903019790933903809383
:100AC0003803C39A4FEF5FE764E041505040604005
:100AD000E1F700C00000C398B69914C080913803B4
:100AE0009091390301969093390380933803C39A08
:100AF0006FEF7FE784E0615070408040E1F700C015
:100B00000000C398B5996BC10E94D801C39A8FEFBA
:100B10009FE7A4E081509040A040E1F700C00000B2
:100B2000C39880913803909139038230910508F081
:100B300056C110925B0310925A03EAE9F1E020E0FB
:100B400030E080819181009721F43183208321500E
:100B50003040329691E0E43BF90799F78091AE017D
:100B60009091AF011816190634F0AAE0B0E0B093E6
:100B70003704A09336048091B0019091B10118160A
:100B8000190634F0EBE0F0E0F0933704E09336041C
:100B900000D000D0E6E2F1E0ADB7BEB71296FC930C
:100BA000EE931197809136049091370414969C939C
:100BB0008E9313970E94D535D601F5011D9231977A
:100BC000E9F70F900F900F900F9000E010E0109356
:100BD00059030093580310923D0310923C03609117
:100BE0003604709137048FEF9FEF40E050E02AE920
:100BF00031E00E94CF0380913C0390913D03009728
:100C000029F40D5F1F4F0A32110509F700D000D0FB
:100C1000ADB7BEB712969C928E92119714969C9384
:100C20008E9313970E94D535EDB7FEB7728261821D
:100C30008091580390915903948383830E94D53502
:100C40000F900F900F900F908AE991E00E9466023A
:100C500060915803709159034091AC035091AD03DA
:100C60008EEBE82E83E0F82EC70120E030E01BC0B9
:100C7000DC01ED91FD91CD01EE0FFF1FE656FE4F19
:100C8000408151812F5F3F4F0D90BC91A02DAA0F45
:100C9000BB1FA656BE4F0D911C9111971183008367
:100CA00011965C934E932617370714F35093AD03B8
:100CB0004093AC03D601F5011D923197E9F7FB0192
:100CC000EE0FFF1FE254FC4F808191819093370417
:100CD0008093360401E010E010935B0300935A0305
:100CE00000E010E0109359030093580310923D0365
:100CF00010923C0360913604709137048FEF9FEFA0
:100D000040E050E02AE931E00E94CF0380913C03AB
:100D100090913D03009729F40D5F1F4F0A32110592
:100D200009F700D000D0ADB7BEB712969C928E9254
:100D3000119714969C938E9313970E94D535EDB717
:100D4000FEB7728261828091580390915903948317
:100D500083830E94D5350F900F900F900F908AE9F2
:100D600091E00E94660260915803709159032091AE
:100D7000AC033091AD0380E090E01BC0D7010D9132
:100D80001D917D01000F111F06561E4FF801208195
:100D9000318101960D90BC91A02DAA0FBB1FA656C4
:100DA000BE4F4D915C9111975183408311963C93B6
:100DB0002E938617970714F33093AD032093AC035B
:100DC000C39A0FEF1FEF2CE2015010402040E1F7D3
:100DD00000C00000C398B599FECFB59BFECF8091AF
:100DE000380390913903009709F443C040917E0382
:100DF00030917D0320917C03909184038091830343
:100E00006DB77EB76E5070400FB6F8947EBF0FBEC0
:100E10006DBFEDB7FEB7319607E519E0ADB7BEB7C8
:100E200012961C930E93119753824282448315822B
:100E300036831782208711869287138684871586CA
:100E40000E94E7352DB73EB7225F3F4F0FB6F894AB
:100E50003EBF0FBE2DBF80E060E0A8010E94670189
:100E600030917F03209180039091810380918203D0
:100E700042C04091900330918F0320918E03909156
:100E80009603809195030DB71EB70E5010400FB614
:100E9000F8941EBF0FBE0DBFEDB7FEB7319607E544
:100EA00019E0ADB7BEB712961C930E9311975382FB
:100EB0004282448315823683178220871186928767
:100EC0001386848715860E94E7352DB73EB7225FCB
:100ED0003F4F0FB6F8943EBF0FBE2DBF80E060E0DD
:100EE000A8010E9467013091910320919203909193
:100EF0009303809194034DB75EB74C5050400FB6AA
:100F0000F8945EBF0FBE4DBFEDB7FEB73196ADB7DB
:100F1000BEB712961C930E931197338222823483AC
:100F200015822683178290871186828713860E94F6
:100F3000E735EDB7FEB73C960FB6F894FEBF0FBE8F
:100F4000EDBF81E060E0A8010E9467018091380355
:100F50009091390397FF03C0909581959F4F69E069
:100F600070E00E94933C90933B0380933A030E946D
:100F7000F90B80913A0366E60E94DB34F82E8091EB
:100F80003A0367E60E94DB34E82E10913A030091A1
:100F90003B03812F68E60E94DB342DB73EB72C500F
:100FA00030400FB6F8943EBF0FBE2DBFEDB7FEB771
:100FB000319627E539E0ADB7BEB712963C932E9334
:100FC00011974EE651E05383428314830583F682E2
:100FD0001782E0861186828713860E94E7356DB7F7
:100FE0007EB7645F7F4F0FB6F8947EBF0FBE6DBFB4
:100FF00082E060E047E559E00E9467018091C70800
:101000009091C8089A8389834091C9085091CA0871
:10101000A091C508B091C608BC83AB83A0917D099F
:10102000B0917E09E0905109F09052096091B808A2
:101030007091B9088091BA089091BB08EDB7FEB7DE
:1010400070970FB6F894FEBF0FBEEDBF0DB71EB779
:101050000F5F1F4F27E539E03283218321E831E01C
:10106000F8013383228329813A813583248357838E
:1010700046834B815C8151874087B387A287F58681
:10108000E4860E94FE36D8011F967C936E931E97CD
:101090000E94E735EDB7FEB770960FB6F894FEBF25
:1010A0000FBEEDBF83E060E047E559E00E946701B5
:1010B00000D000D000D0EDB7FEB7319607E519E0BB
:1010C000ADB7BEB712961C930E93119723E931E08A
:1010D00033832283809138039091390395838483ED
:1010E0000E94E7354DB75EB74A5F5F4F0FB6F89481
:1010F0005EBF0FBE4DBF83E060E1A8010E946701A3
:10110000D5CC90E0FC01B096FE2FEE2720812093F5
:10111000C00820FDFBCF8896B82FAA278C9190811C
:101120009093C00890FDFBCF089590E08096F82F33
:10113000EE2780818093C00880FDFBCF6083808193
:101140008093C00880FDFBCF089580E061E00E949D
:10115000950882E061E00E94950881E061E00E94CC
:1011600095080895A82FB0E0FD01B096FE2FEE2758
:1011700080818093C00880FDFBCF9896BA2FAA2764
:10118000872F992787FD9A958C9380818093C0083B
:1011900080FDFBCF6C9380818093C00880FDFBCFE6
:1011A00008951F93CF93DF93182F80E06FE10E9483
:1011B0009508C1E0D0E002C0CC0FDD1F1A95E2F720
:1011C00080E0BE010E94B20881E06FE10E949508B4
:1011D00081E0BE010E94B20882E06FE10E949508A2
:1011E00082E0BE010E94B20880E061E00E949508A2
:1011F00082E061E00E94950881E061E00E9495082C
:10120000DF91CF911F910895DF92EF92FF920F939C
:101210001F93D82E7A018B019B01552737FD5095DE
:10122000452FB9010E94B2088D2DB7010E94B20866
:101230001F910F91FF90EF90DF9008951F93182F4B
:1012400060E00E9495088CEC9CE10197F1F700C0EA
:101250000000812F6DE10E949508812F60E070E011
:101260000E94B2081F910895AF92BF92CF92DF9271
:10127000EF92FF920F931F93CF93DF93F82E6B01A2
:10128000EA018901AA24A3946115710509F4AA242D
:10129000BB24B394209709F4BB24EE24E3940115F6
:1012A000110509F4EE248F2D6EE10E9495086B2D37
:1012B00070E0660F771F660F771F8A2D90E043E07E
:1012C000880F991F4A95E1F7682B792B8E2D90E0B6
:1012D000880F991F682B792B8F2D0E94B208AA20A6
:1012E00021F08F2DB6010E94B208BB2021F08F2D76
:1012F000BE010E94B208EE2021F08F2DB8010E949D
:10130000B2088F2D64E00E949508DF91CF911F9164
:101310000F91FF90EF90DF90CF90BF90AF90089526
:101320008F929F92AF92BF92CF92DF92EF92FF92F5
:101330000F931F93CF93DF93F82E4B016A01E901BE
:10134000AA24A3946115710509F4AA24BB24B394BB
:10135000C114D10409F4BB24EE24E394209709F4CA
:10136000EE248F2D6EE10E9495086A2D70E0A3E0B7
:10137000660F771FAA95E1F761608B2D90E0880FCB
:10138000991F880F991F682B792B8E2D90E0880F5D
:10139000991F682B792B8F2D0E94B208AA2021F06B
:1013A0008F2DB4010E94B208BB2021F08F2DB60111
:1013B0000E94B208EE2021F08F2DBE010E94B208DB
:1013C0008F2DB8010E94B2088F2D64E00E9495080D
:1013D000DF91CF911F910F91FF90EF90DF90CF9011
:1013E000BF90AF909F908F900895DF92EF92FF9201
:1013F0000F931F93D82E7A018B016FE10E949508FD
:101400008D2D60E270E00E94B2088D2DB801A70119
:101410000E9404091F910F91FF90EF90DF900895B3
:1014200080E060E170E040E050E020E430E00E94C5
:10143000340981E060E170E040E050E020E430E019
:101440000E94340982E060E170E040E050E020E476
:1014500030E00E94340980E04FEF5FEF6FEF7FE3F1
:101460000E94F50981E04FEF5FEF6FEF7FE30E948D
:10147000F50982E04FEF5FEF6FEF7FE30E94F50920
:101480000895DF92EF92FF920F931F93DF93CF9314
:101490000F92CDB7DEB7D82E7A018B0177FF0AC045
:1014A00010950095F094E094E11CF11C011D111DB4
:1014B00090E001C091E08D2D6FE199830E94950825
:1014C0009981792F7295707F60E0686078608D2DCA
:1014D0000E94B2088D2DB801A7010E9404090F9047
:1014E000CF91DF911F910F91FF90EF90DF900895C2
:1014F000AF92BF92CF92DF92EF92FF920F931F9322
:10150000DF93CF93CDB7DEB72C970FB6F894DEBF3D
:101510000FBECDBF59016A010E94313769837A83BA
:101520008B839C83C601B5010E9431376D837E8316
:101530008F839887C801B7010E94313769877A87FE
:101540008B879C878E010F5F1F4FEE24F80160810F
:1015500071818281938121E73CEA4BE85EE30E943E
:10156000F5389B01AC01F8012193319341935193DC
:101570008F0120E030E040E857E40E94F5380E94F7
:10158000FE36AB01BC018E2D0E94410AE394FE2D74
:10159000F330E1F60E94A5082C960FB6F894DEBF52
:1015A0000FBECDBFCF91DF911F910F91FF90EF90B4
:1015B000DF90CF90BF90AF9008954F925F926F925F
:1015C0007F928F929F92AF92BF92CF92DF92EF92D3
:1015D000FF920F931F93982E862E29013A016FE1F7
:1015E0000E949508682D70E06A62892D0E94B208F9
:1015F000892DB301A2010E940409892DB801A70118
:101600000E940409892DB601A5010E9404091F91B9
:101610000F91FF90EF90DF90CF90BF90AF909F9091
:101620008F907F906F905F904F9008959F92AF92B0
:10163000BF92CF92DF92EF92FF920F931F93DF93AF
:10164000CF9300D00F92CDB7DEB71ABA15BA8FEF8D
:1016500084BB1092650083E08093640010E8A12EA3
:10166000B4E8BB2E6E010894C11CD11C85B3856003
:1016700085BB83E39BE20197F1F785B38A7F85BB46
:10168000ECECFCE13197F1F700C0000080916500BF
:101690008D7F80936500AB9885B3887F85BB99B3B8
:1016A0009983A89A19B385B3887F826085BB09B3F3
:1016B000943C09F494C0943809F491C015BA80E0C0
:1016C00060E046E952E00E94670181E060E04CE999
:1016D00052E00E946701143C09F481C0143809F4F7
:1016E0007EC015BA80E060E046E952E00E946701E2
:1016F00082E060E04CEA52E00E946701043C09F499
:101700006EC0043809F46BC015BA80E060E046E9A9
:1017100052E00E94670183E060E04CEB52E029C098
:101720009E2C9C18892D6DE10E949508892D60E002
:1017300070E00E94B208F8018081F70181937F0177
:1017400000501F4FF3E200301F0751F78981803CA2
:1017500099F0803889F085B78F7385BF15BA80E01E
:1017600060E04CEC52E00E94670181E060E04CE9EF
:1017700052E00E9467017ACF80E060E042ED52E0E3
:101780000E94670180E098B3976098BB2FEF3FEB12
:1017900046E0215030404040E1F700C0000098B3DF
:1017A000987F98BB2FEF3FEB46E021503040404000
:1017B000E1F700C000008F5F833029F70E94D80155
:1017C0000F900F900F90CF91DF911F910F91FF908D
:1017D000EF90DF90CF90BF90AF909F900895A5BEFF
:1017E00082E080936D00B0926C00760100E010E220
:1017F00097CF4F925F926F927F928F929F92AF920C
:10180000BF92CF92DF92EF92FF920F931F93CF93ED
:10181000DF9304E6802E912C84E00E947600982FBE
:1018200080E0EC0185E00E94760090E08C2B9D2BFF
:10183000B4010E94933C882777FD8095982F0E94E1
:101840003137F62E072F182FE92E462E572E682EE9
:10185000792E63015201E894D7F8C601B50120E062
:1018600030E044E353E40E945A381816ACF2609119
:10187000B4087091B5088091B6089091B7082F2DE3
:10188000302F412F5E2D0E948F36882309F4E5C04A
:101890006F2D702F812F9E2D20E030E0A9010E9436
:1018A0008F3687FF5DC06091B4087091B508809154
:1018B000B6089091B70820E030E0A9010E945A389C
:1018C00018160CF04DC02091B4083091B508409125
:1018D000B6085091B7085F77C601B5010E94183667
:1018E00020E030E044E353E40E948F3687FF15C0C8
:1018F000A090B808B090B908C090BA08D090BB08C2
:101900002091B4083091B5084091B6085091B708BD
:101910006F2D702F812F9E2D1CC0A090B808B09005
:10192000B908C090BA08D090BB086091B408709113
:10193000B5088091B6089091B7082F2D302F412F10
:101940005E2D0E9417369B01AC0160E070E084EBD5
:1019500093E40E9417369B01AC01C601B50169C032
:10196000C301B20120E030E0A9010E945A381816E4
:101970000CF047C06091B4087091B5088091B6082A
:101980009091B70820E030E0A9010E948F3687FFD0
:1019900038C02091B4083091B5084091B6085091F4
:1019A000B7085F77C601B5010E94183620E030E025
:1019B00044E353E40E948F3687FD23C0E090B808CB
:1019C000F090B9080091BA081091BB082091B408B2
:1019D0003091B5084091B6085091B708C301B201E3
:1019E0000E9417369B01AC0160E070E084EB93E449
:1019F0000E9417369B01AC01C801B7010E9417363F
:101A00001AC0E090B808F090B9080091BA08109197
:101A1000BB082091B4083091B5084091B6085091A8
:101A2000B708C301B2010E9417369B01AC01C8017F
:101A3000B7010E9418369B01AC012093B80830937F
:101A4000B9084093BA085093BB084092B40850922A
:101A5000B5086092B6087092B708DF91CF911F91D8
:101A60000F91FF90EF90DF90CF90BF90AF909F903D
:101A70008F907F906F905F904F9008952F923F923C
:101A80004F925F926F927F928F929F92AF92BF928E
:101A9000CF92DF92EF92FF920F931F93DF93CF933A
:101AA000CDB7DEB762970FB6F894DEBF0FBECDBFDD
:101AB00069837A838B839C832D833E834F835887EE
:101AC0003701480160E070E084E394E4A6019501E9
:101AD0000E941736162F072FF82EE92E8D819E8132
:101AE000AF81B8858093C1089093C208A093C308C2
:101AF000B093C40889819A81AB81BC8180935309DA
:101B000090935409A0935509B0935609A092CB081D
:101B1000B092CC08C092CD08D092CE08C601B501D3
:101B200020E030E044E353E40E948F36181684F03E
:101B3000A8019701652F742F832F922F20E030E0AA
:101B400044EB53E40E941736162F072FF82EE92E88
:101B5000A8019701652F702F832F9E2D20E030E084
:101B600044EB52E40E94173669877A878B879C87FB
:101B7000C401B30123EF36E64FE55EE30E94F5387A
:101B80006D877E878F87988B80E090E036E9432EC3
:101B9000512C28E6222E21E0322E9A8B898BB2011D
:101BA000882777FD8095982F0E9431375B016C0163
:101BB000C20188589F4FB1010E94933C2C01C6017D
:101BC000B501D801F7012B2F302F4F2F5E2D0E942A
:101BD000173625E33AEF4EE85CE30E94F5380E94A1
:101BE00093363B014C01C601B501B985AA85AB848A
:101BF000DC842B2F3A2F4A2D5D2D0E94173625E3CA
:101C00003AEF4EE85CE30E94F5380E9493365B01A0
:101C10006C016D817E818F819885A40193010E9462
:101C2000F5383B014C0169817A818B819C81A60149
:101C300095010E94F5389B01AC01C401B3010E94DB
:101C40001836BD85AE85DF84A8882B2F3A2F4D2D01
:101C50005A2D0E9417362FE632E143E856E40E94DF
:101C6000F53823E333E343E250EC0E94F5380E9459
:101C7000FE36AB01BC0189890E94410AA989BA8953
:101C80001196BA8BA98BA330B10509F088CF0E94B9
:101C9000A5080E94F90B62960FB6F894DEBF0FBE3E
:101CA000CDBFCF91DF911F910F91FF90EF90DF900B
:101CB000CF90BF90AF909F908F907F906F905F90EC
:101CC0004F903F902F9008952F923F924F925F92A6
:101CD0006F927F928F929F92AF92BF92CF92DF923C
:101CE000EF92FF920F931F93DF93CF93CDB7DEB7A1
:101CF0002C970FB6F894DEBF0FBECDBF5B016C0111
:101D000039014A01170128016091B8087091B9089A
:101D10008091BA089091BB082091BC083091BD0811
:101D20004091BE085091BF08E090B808F090B90803
:101D30000091BA081091BB08E092BC08F092BD086F
:101D40000093BE081093BF08E090B008F090B1086F
:101D50000091B2081091B3080E9417369B01AC01A4
:101D6000C801B7010E9417369B01AC012093B0084F
:101D70003093B1084093B2085093B308C601B5013F
:101D800020E030E0A9010E948F36882351F4C4017D
:101D9000B30120E030E0A9010E948F36882309F4C6
:101DA000D2C0C601B50120E030E048EC52E40E9408
:101DB000963669837A838B839C83C401B30120E0C8
:101DC00030E048EC52E40E9496366D837E838F8328
:101DD00098876091B0087091B1088091B208909195
:101DE000B308A20191010E941736F62E072F182F73
:101DF000E92E8091A8089091A908A091AA08B09115
:101E0000AB0889879A87AB87BC876F2D702F812F8E
:101E10009E2D25E33AEF4EE85CE30E94F5380E94E0
:101E200093363B014C016F2D702F812F9E2D20E0AA
:101E300030E044EB52E40E94183625E33AEF4EE8D6
:101E40005CE30E94F5380E9493365B016C01598176
:101E50004A813B812C81652F742F832F922FA401FF
:101E600093010E94F5381B012C015D814E813F8159
:101E70002885652F742F832F922FA60195010E942C
:101E8000F5389B01AC01C201B1010E9418369B01DB
:101E9000AC0169857A858B859C850E9418369B01EB
:101EA000AC012093A8083093A9084093AA08509346
:101EB000AB082090AC083090AD084090AE08509030
:101EC000AF086F2D702F812F9E2D20E030E044EB66
:101ED00052E40E94173625E33AEF4EE85CE30E9495
:101EE000F5380E9493367B018C015D814E813F81E4
:101EF0002885652F742F832F922FA40193010E94B0
:101F0000F5385B016C0159814A813B812C81652F39
:101F1000742F832F922FA80197010E94F5389B01FF
:101F2000AC01C601B5010E9418369B01AC01C2018B
:101F3000B1010E9418369B01AC01E8EAF8E0248365
:101F40003583468357832C960FB6F894DEBF0FBEB9
:101F5000CDBFCF91DF911F910F91FF90EF90DF9058
:101F6000CF90BF90AF909F908F907F906F905F9039
:101F70004F903F902F9008952F923F924F925F92F3
:101F80006F927F928F929F92AF92BF92CF92DF9289
:101F9000EF92FF920F931F93DF93CF93CDB7DEB7EE
:101FA0002E970FB6F894DEBF0FBECDBF1801870184
:101FB0009A8389837C836B83509541955F4F5E83C1
:101FC0004D83309521953F4F38872F83CE01019661
:101FD0009A87898779E0472E512C4C0E5D1E7C0133
:101FE00066247724CC24DD24D7016D917D917D0179
:101FF000882777FD8095982F0E9431374B015C012F
:10200000E894B7F8662D772D8C2D9D2DA5019401B0
:102010000E948F3687FF02C034016501E414F50485
:1020200019F7EE24FF24C101AA2797FDA095BA2F26
:102030008B879C87AD87BE87A985BA85AD90BD90FB
:10204000BA87A9876B857C858D859E850E943137EF
:102050001B012C01B501882777FD8095982F0E94E0
:102060003137262D372D4C2D5D2D0E949636A2013D
:1020700091010E94F5389B01AC01F701EE0FFF1FA3
:10208000EE0FFF1FE359F64F2083318342835383C2
:102090000894E11CF11CB4E0EB16F10469F6043677
:1020A00011052CF40115110509F051C005C00436C5
:1020B000110511F00456104091E0E92EF12C662D27
:1020C000772D8C2D9D2D20E030E048EC52E40E94CD
:1020D000F538A20191010E9496360E947C365B0180
:1020E0006C01970122503040C80117FF03C0909542
:1020F00081959F4FB7010E94933C620F731F882701
:1021000077FD8095982F0E9431379B01AC01C60165
:10211000B5010E9418360E94FE36CB012E960FB6EE
:10212000F894DEBF0FBECDBFCF91DF911F910F910D
:10213000FF90EF90DF90CF90BF90AF909F908F90E7
:102140007F906F905F904F903F902F90089582E026
:10215000E82EF12CB4CF2F923F924F925F926F9264
:102160007F928F929F92AF92BF92CF92DF92EF9227
:10217000FF920F931F93DF93CF93CDB7DEB72E97C8
:102180000FB6F894DEBF0FBECDBF7A836983653684
:10219000710514F0645670404B0177FF04C0882429
:1021A0009924861A970AE0908603F0908703A70186
:1021B0004F5F5F4F9C012E193F0900E010E05A016C
:1021C000CC24B7FCC094DC2CAB82BC82CD82DE82F6
:1021D0001401442437FC4094542C6C01C818D908CD
:1021E000D886CF82C901AA2797FDA095BA2F8987E3
:1021F0009A87AB87BC877E876D873401F7FC34C034
:10220000AD85BE85B7FD2DC04801880C991C880C92
:10221000991CF401E359F64FA080B180C280D380AD
:102220006B817C818D819E810E9431379B01AC0145
:10223000C601B5010E94F5385B016C01C201B10114
:102240000E9431379B01AC01C601B5010E94963650
:102250009B01AC01F401E158F64F208331834283A6
:102260005383E614F70424F4ED85FE85F7FF13C0CD
:102270009801220F331F220F331FF901E359F64F44
:1022800080819181A281B3812158364FF9018083E9
:102290009183A283B383AF80B884AE14BF0494F556
:1022A00049815A814536510568F14801880C991CCD
:1022B000880C991CF401E359F64FA080B180C280CC
:1022C000D38069857A858B859C850E9431379B01F7
:1022D000AC01C601B5010E94F5385B016C01C20179
:1022E000B1010E9431379B01AC01C601B5010E94CA
:1022F00096369B01AC01F401E158F64F20833183FF
:10230000428353830F5F1F4F0430110509F076CFCE
:102310002E960FB6F894DEBF0FBECDBFCF91DF91E2
:102320001F910F91FF90EF90DF90CF90BF90AF90F3
:102330009F908F907F906F905F904F903F902F90E5
:10234000089581E090E00A9B02C080E090E09093C5
:10235000CA088093C90881E090E00B9B02C080E02E
:1023600090E09093C6088093C50881E090E00C9BB4
:1023700002C080E090E090937E0980937D0981E027
:1023800090E0849B02C080E090E09093C808809326
:10239000C70881E090E0869B02C080E090E09093C7
:1023A00052098093510908951F920F920FB60F9210
:1023B0000BB60F921124EF92FF920F931F932F935E
:1023C0003F934F935F936F937F938F939F93AF93BD
:1023D000BF93EF93FF938FEF8DBD80E78CBD60912E
:1023E00072037091730380917403909175032AE0D6
:1023F00037ED43EA5CE30E9418367B018C017F2DA8
:10240000912F20E030E040E85FE30E945A38181630
:1024100024F4EE24FF2400E81FE38E2D9F2DA02F2F
:10242000B12F8093720390937303A0937403B093BE
:10243000750360918A0370918B0380918C03909156
:102440008D032AE037ED43EA5CE30E9418367B01F6
:102450008C017F2D912F20E030E040E85FE30E9467
:102460005A38181624F4EE24FF2400E81FE38E2DBA
:102470009F2DA02FB12F80938A0390938B03A0935D
:102480008C03B0938D0360917603709177038091F4
:102490007803909179032DEC3CEC4CE45DE30E94D1
:1024A0001836F62EE72E8C01A701652F742F912F79
:1024B00020E030E040E85FE30E945A38181624F428
:1024C000FF24EE2400E81FE3A701852F9E2DA02FF7
:1024D000B12F8093760390937703A0937803B09302
:1024E00079030E94A1118091C9089091CA080097B0
:1024F000B1F08091700390917103009781F4809105
:102500007A0390917B03019690937B0380937A03E7
:1025100081E090E0909371038093700310C08091EC
:10252000C9089091CA08009751F480917003909166
:102530007103009721F01092710310927003809143
:10254000C5089091C608009731F18091A003909141
:10255000A103009701F58091AA039091AB03019626
:102560009093AB038093AA0321E030E03093A10362
:102570002093A00380916B0990916C09FC01EE0FF0
:10258000FF1FE75DF64F31832083019690936C091E
:1025900080936B0910C08091C5089091C608009780
:1025A00051F48091A0039091A103009721F0109223
:1025B000A1031092A00380917D0990917E0900975C
:1025C000B1F080919E0390919F03009781F48091D8
:1025D0009C0390919D03019690939D0380939C038F
:1025E00081E090E090939F0380939E0310C08091C0
:1025F0007D0990917E09009751F480919E039091FE
:102600009F03009721F010929F0310929E038091E8
:10261000C7089091C8080097B1F080919A039091F3
:102620009B03009781F48091A2039091A3030196EC
:102630009093A3038093A20381E090E090939B0387
:1026400080939A0310C08091C7089091C8080097A2
:1026500051F480919A0390919B03009721F010927E
:102660009B0310929A03809151099091520900970F
:10267000B1F08091880390918903009781F4809153
:10268000A4039091A50301969093A5038093A403BE
:1026900081E090E0909389038093880310C080913B
:1026A000510990915209009751F4809188039091BB
:1026B0008903009721F0109289031092880380917A
:1026C000860390918703009729F0019690938703E2
:1026D000809386038091600390916103009749F095
:1026E00080916003909161030197909361038093BF
:1026F00060038091A6039091A703009749F0809111
:10270000A6039091A70301969093A7038093A60335
:102710008091980390919903009729F001969093E6
:1027200099038093980380916B0990916C0984318F
:10273000910524F010926C0910926B096091530975
:102740007091540980915509909156092091C108C2
:102750003091C2084091C3085091C408E090CB0862
:10276000F090CC080091CD081091CE080E94640E24
:10277000FF91EF91BF91AF919F918F917F916F9159
:102780005F914F913F912F911F910F91FF90EF908B
:102790000F900BBE0F900FBE0F901F901895AF9229
:1027A000BF92CF92DF92EF92FF920F931F9360E060
:1027B00070E0CB019B01AC017B018C015B016C01E2
:1027C0000E943E0D1F910F91FF90EF90DF90CF90F0
:1027D000BF90AF900895FC01E458FC4F808190E0D9
:1027E000681779076CF0809198039091990300978E
:1027F00059F481E090E0909399038093980304C08A
:10280000109299031092980321E030E08091980390
:10281000909199038330910514F420E030E0C901D0
:1028200008951F93182F81E10E943E01812F0E947D
:102830003E01809136038823E1F30E942B01882317
:1028400091F31F9108954F925F926F927F928F92B2
:102850009F92AF92BF92CF92DF92EF92FF920F932F
:102860001F93CF93DF938C013B01C1E0D0E0CC24D8
:10287000DD248FEFA82EB12C88249924EE24FF2488
:1028800044245524401A510A14C0602F17FD642DAA
:102890008C2F0E94DB3490E0C816D90614F46C012A
:1028A0007E018A159B0524F4009711F05C014E010E
:1028B00021966C167D064CF7101611060CF074016B
:1028C000C701DF91CF911F910F91FF90EF90DF90A3
:1028D000CF90BF90AF909F908F907F906F905F90C0
:1028E0004F9008956F927F928F929F92AF92BF9276
:1028F000CF92DF92EF92FF920F931F93D62EC72EA7
:10290000B82EA92E922E832E742E652E6E2D7F2D1D
:10291000802F912FD601F5012B2F3A2F4F2F5E2FAD
:102920000E945A381816ACF06E2D7F2D802F912FF3
:10293000D401F3012B2F3A2F4F2F5E2F0E948F3699
:1029400087FF03C06401530104C0DE2CCF2CB02EDE
:10295000A12EA6019501652F7C2D832F9A2D1F9105
:102960000F91FF90EF90DF90CF90BF90AF909F902E
:102970008F907F906F9008952F923F925F926F9209
:102980007F928F929F92AF92BF92CF92DF92EF92FF
:10299000FF920F931F93DF93CF93CDB7DEB72897A6
:1029A0000FB6F894DEBF0FBECDBF582E4B015A8331
:1029B0004983109299031092980310926103109228
:1029C00060038091600390916103909390098093DC
:1029D0008F0980918F09909190099093870380933C
:1029E000860360E070E080E090E0DC018B01000F86
:1029F000111F000F111F98012158364FF9018083D4
:102A00009183A283B3832081318142815381F80174
:102A1000E359F64F20833183428353836F5F7F4FA7
:102A20006430710519F700D000D000D0EDB7FEB7C3
:102A3000319607E519E0ADB7BEB712961C930E9319
:102A4000119786EE92E0938382838BEE92E09583DA
:102A500084830E94E735EDB7FEB736960FB6F8943B
:102A6000FEBF0FBEEDBF80E067E0A8010E946701D6
:102A70001092A7031092A603852D66E60E94DB3410
:102A8000A82EE090B008F090B1080091B208109123
:102A9000B308B401882777FD8095982F0E943137BD
:102AA000A80197010E9418360E94FE364B018A1831
:102AB0009108882777FD8095982F0E9431375B0118
:102AC0006C01B401882777FD8095982F0E943137DB
:102AD0007B018C01C40168E572E00E94933C882769
:102AE00077FD8095982F0E9431372FE832EC45E72B
:102AF0005EE30E9418369B01AC01C801B7010E9439
:102B0000F5389B01AC01C601B5010E9418360E9440
:102B1000FE361B018824992491E0692E712C3C8299
:102B20002B82140180916003909161030097D1F78B
:102B30007092610360926003852D66E60E94DB342B
:102B4000E82EFF24852D67E60E94DB3438C00E9402
:102B5000CF13852D66E60E94DB34E82E852D67E6CF
:102B60000E94DB342091A6033091A7032115310583
:102B700021F47092A7036092A6032091A6033091DE
:102B8000A703F1E02F353F071CF00E94CF1312C1BD
:102B9000FF24E114F10499F020E030E0A901209332
:102BA0008A0330938B0340938C0350938D032093BF
:102BB0007203309373034093740350937503082F8B
:102BC00010E0E114F10421F40115110509F4BFCF5F
:102BD0004B815C814115510591F0E41AF50AB7016A
:102BE000882777FD8095982F0E9431372DEC3CEC9B
:102BF0004CE45FE30E94F5380E94FE361B01898198
:102C00009A81009719F04C01801A910AB101882726
:102C100077FD8095982F0E9431377B018C0160E011
:102C200070E088E492E420E030E048E452EC0E9456
:102C300072140E94FE361B01B401882777FD80952F
:102C4000982F0E9431377B018C0160E070E080E7B3
:102C500092E420E030E040E752EC0E9472140E94BF
:102C6000FE364B01A090B008B090B108C090B208F9
:102C7000D090B308B401882777FD8095982F0E94E3
:102C8000313720918A0330918B0340918C0350910E
:102C90008D030E94F5382DEC3CEC4CE45FE30E9480
:102CA000F5386D837E838F839887B101882777FD00
:102CB0008095982F0E9431372091720330917303D1
:102CC00040917403509175030E94F5387B018C018B
:102CD0006091A8037091A903882777FD8095982FAC
:102CE0000E943137A60195010E9418365B016C01E4
:102CF00060E070E0CB012D813E814F8158850E94BC
:102D00003E0D8091860390918703009721F4709285
:102D10008703609286038091860390918703A1E0E8
:102D20008F359A0754F42114310409F0FBCEC40105
:102D300001968330910508F0F5CE10929903109218
:102D4000980380E090E0DC018093CB089093CC085E
:102D5000A093CD08B093CE088091CB089091CC0879
:102D6000A091CD08B091CE08809353099093540957
:102D7000A0935509B0935609809153099091540935
:102D8000A0915509B09156098093C1089093C2084B
:102D9000A093C308B093C4086091C1087091C208A1
:102DA0008091C3089091C4080E94FE3670938703F7
:102DB0006093860328960FB6F894DEBF0FBECDBF92
:102DC000CF91DF911F910F91FF90EF90DF90CF9007
:102DD000BF90AF909F908F907F906F905F903F904B
:102DE0002F9008952F923F925F926F927F928F92D1
:102DF0009F92AF92BF92CF92DF92EF92FF920F938A
:102E00001F93DF93CF93CDB7DEB760970FB6F894DB
:102E1000DEBF0FBECDBF582E7A8369835C834B83A0
:102E20003E832D83109299031092980310926103B0
:102E300010926003809160039091610390939009D8
:102E400080938F0980918F099091900990938703C7
:102E50008093860360E070E080E090E0DC018B010D
:102E6000000F111F000F111F98012158364FF90153
:102E700080839183A283B3832081318142815381F6
:102E8000F801E359F64F20833183428353836F5F08
:102E90007F4F6430710519F700D000D000D0EDB736
:102EA000FEB7319607E519E0ADB7BEB712961C9391
:102EB0000E93119786EE92E0938382838FEE92E0D9
:102EC000958384830E94E735EDB7FEB736960FB63B
:102ED000F894FEBF0FBEEDBF80E067E0A8010E943E
:102EE00067011092A7031092A6038824992480E01A
:102EF00090E06624772431E0232E312C988B8F8745
:102F000080916003909161030097D1F73092610343
:102F100020926003852D66E60E94DB34E82EFF24B4
:102F2000852D67E60E94DB34082F10E0B701CF84BF
:102F3000D8883BC00E94CF13852D66E60E94DB3403
:102F4000A82E852D67E60E94DB342091A6033091E0
:102F5000A7032115310521F43092A7032092A6037F
:102F60002091A6033091A703F1E02F353F071CF015
:102F70000E94CF1357C16A2D70E06115710599F059
:102F800020E030E0A90120938A0330938B03409323
:102F90008C0350938D0320937203309373034093FB
:102FA000740350937503082F10E06115710521F427
:102FB0000115110509F4BECFD88ACF864B815C81FB
:102FC0004115510589F0641B750B882777FD8095A5
:102FD000982F0E9431372DEC3CEC4CE45FE30E94CB
:102FE000F5380E94FE363B0189819A81009791F065
:102FF000E81AF90AB701882777FD8095982F0E9473
:1030000031372AE939E949E15FE30E94F5380E9446
:10301000FE364B01AD81BE81109721F0A01BB10B94
:10302000B88BAF87B301882777FD8095982F0E94D2
:1030300031377B018C0160E070E080EF91E420E0AB
:1030400030E040EF51EC0E9472140E94FE363B01CA
:10305000EF85F889BF01882777FD8095982F0E941A
:1030600031377B018C0160E070E08CE592E420E078
:1030700030E04CE552EC0E9472140E94FE36788BD0
:103080006F87B401882777FD8095982F0E9431378C
:103090007B018C0160E070E088E492E420E030E0A5
:1030A00048E452EC0E9472140E94FE364B01E090FC
:1030B0007203F09073030091740310917503B301D0
:1030C000882777FD8095982F0E943137A8019701B6
:1030D0000E94F5382DEC3CEC4CE45FE30E94F5389F
:1030E0006F83788789879A872F853889B9018827E0
:1030F00077FD8095982F0E94313720918A03309177
:103100008B0340918C0350918D030E94F5382DEC78
:103110003CEC4CE45FE30E94F5386B877C878D873D
:103120009E87B401882777FD8095982F0E943137BC
:10313000A80197010E94F5387B018C016091A803DA
:103140007091A903882777FD8095982F0E943137C9
:103150005B016C016F81788589859A852B853C851B
:103160004D855E850E943E0D809186039091870378
:10317000009721F430928703209286038091860382
:103180009091870331E08F3593077CF461147104CB
:1031900009F0B6CE8F85988901968330910508F0A5
:1031A000AFCE8114910409F0ABCE10929903109226
:1031B000980380E090E0DC018093CB089093CC08EA
:1031C000A093CD08B093CE088091CB089091CC0805
:1031D000A091CD08B091CE088093530990935409E3
:1031E000A0935509B09356098091530990915409C1
:1031F000A0915509B09156098093C1089093C208D7
:10320000A093C308B093C4086091C1087091C2082C
:103210008091C3089091C4080E94FE367093870382
:103220006093860360960FB6F894DEBF0FBECDBFE5
:10323000CF91DF911F910F91FF90EF90DF90CF9092
:10324000BF90AF909F908F907F906F905F903F90D6
:103250002F9008952F923F924F925F926F927F929C
:103260008F929F92AF92BF92CF92DF92EF92FF9296
:103270000F931F93DF93CF93CDB7DEB72C970FB685
:10328000F894DEBF0FBECDBF5C013B015C834B8376
:1032900019011A83098310929903109298031092CE
:1032A0006103109260038091600390916103909399
:1032B000900980938F0980918F0990919009909344
:1032C00087038093860360E070E080E090E0DC019B
:1032D0008B01000F111F000F111F98012158364F4D
:1032E000F90180839183A283B3832081318142815C
:1032F0005381F801E359F64F20833183428353838E
:103300006F5F7F4F6430710519F700D000D000D097
:10331000EDB7FEB7319607E519E0ADB7BEB7129627
:103320001C930E93119786EE92E09383828382EF33
:1033300092E0958384830E94E735EDB7FEB7369619
:103340000FB6F894FEBF0FBEEDBF80E067E0A801A6
:103350000E9467018091B8089091B908A091BA08BD
:10336000B091BB088D839E83AF83B887C501B3013D
:1033700040E050E020E030E08101E980FA800E94E6
:10338000BC0FA114B10471F16114710459F1B101C0
:10339000882777FD8095982F0E9431377B018C011B
:1033A00060916D0970916E0980916F09909170091B
:1033B00020917109309172094091730950917409FB
:1033C0000E9467389B01AC01C801B7010E94963684
:1033D0009B01AC015F77C801B7010E94F5380E94DC
:1033E000FE361B01C501B3014B815C8120E030E05A
:1033F0008101E980FA800E94BC0F9093900980932C
:103400008F09C1010A966AE070E00E94933CCB01EB
:10341000AA2797FDA095BA2F89879A87AB87BC8783
:1034200080916003909161030097D1F7A1E0B0E033
:10343000B0936103A093600380918F0990919009EC
:1034400069817A810E94AB10EB81FC81309709F091
:1034500041C02091B8083091B9084091BA08509104
:10346000BB086D817E818F8198850E941736662EFC
:10347000A72EE82E092F69857A858B859C850E9469
:1034800031379B01AC01662D7A2D8E2D902F0E9435
:10349000F538E62EF72E082F192FC801B7019F77B0
:1034A00020E030E040EF51E40E945A38181654F4FE
:1034B0000F2EF0E0EF2EF0E0FF2EF0E00F2FF0E007
:1034C0001F2FF02DE0928709F09288090093890957
:1034D00010938A098091860390918703009731F4B5
:1034E00081E090E0909387038093860380918F0919
:1034F000909190092091860330918703821793075A
:103500000CF056C0109299031092980380E090E05E
:10351000DC018093CB089093CC08A093CD08B093A6
:10352000CE088091CB089091CC08A091CD08B091A5
:10353000CE088093530990935409A0935509B093F2
:1035400056098091530990915409A0915509B09161
:1035500056098093C1089093C208A093C308B09302
:10356000C4086091C1087091C2088091C30890910D
:10357000C4080E94FE3670938703609386032C96DE
:103580000FB6F894DEBF0FBECDBFCF91DF911F9174
:103590000F91FF90EF90DF90CF90BF90AF909F90F2
:1035A0008F907F906F905F904F903F902F900895F5
:1035B00060907F09709080098090810990908209C5
:1035C00020908309309084094090850950908609A5
:1035D000E0908709F09088090091890910918A0983
:1035E0006091A8037091A903882777FD8095982F93
:1035F0000E9431375B016C01C401B301A20191014A
:103600000E943E0D0DCF2F923F924F925F926F928C
:103610007F928F929F92AF92BF92CF92DF92EF9262
:10362000FF920F931F93DF93CF93CDB7DEB76297CF
:103630000FB6F894DEBF0FBECDBF9A8789877C870F
:103640006B873A0119011C830B83FE86ED86BA82D3
:10365000A98210929903109298031092610310921C
:10366000600380916003909161039093900980932F
:103670008F0980918F09909190099093870380938F
:10368000860360E070E080E090E0DC019B01220FA7
:10369000331F220F331FF901E158F64F80839183C6
:1036A000A283B383E080F180028113812359364FD6
:1036B000F901E082F182028313836F5F7F4F6430F0
:1036C000710521F700D000D000D0EDB7FEB73196DC
:1036D00007E519E0ADB7BEB712961C930E9311978C
:1036E00086EE92E09383828387EF92E095838483D2
:1036F0000E94E735EDB7FEB736960FB6F894FEBFD9
:103700000FBEEDBF80E067E0A8010E9467018091D5
:10371000B8089091B908A091BA08B091BB088D8300
:103720009E83AF83B887C301B10140E050E020E041
:1037300030E08601E980FA800E94BC0F61147104B8
:1037400071F12114310459F1B601882777FD809574
:10375000982F0E9431377B018C0160916D09709127
:103760006E0980916F0990917009209171093091D3
:10377000720940917309509174090E9467389B0146
:10378000AC01C801B7010E9496369B01AC015F777E
:10379000C801B7010E94F5380E94FE366B01C301D3
:1037A000B1014B815C8120E030E08601E980FA8044
:1037B0000E94BC0F9093900980938F09C6010A96CE
:1037C0006AE070E00E94933CCB01AA2797FDA09588
:1037D000BA2F8F87988BA98BBA8B809160039091B9
:1037E00061030097D1F7A1E0B0E0B0936103A0932B
:1037F000600380918F099091900969817A810E947C
:10380000AB10EB81FC81309709F041C02091B808E2
:103810003091B9084091BA085091BB086D817E8102
:103820008F8198850E941736662EA72EE82E092FC5
:103830006F85788989899A890E9431379B01AC010B
:10384000662D7A2D8E2D902F0E94F538E62EF72EBC
:10385000082F192FC801B7019F7720E030E040EF13
:1038600051E40E945A38181654F40F2EF0E0EF2E4F
:10387000F0E0FF2EF0E00F2FF0E01F2FF02DE09290
:103880008709F09288090093890910938A09809129
:10389000860390918703009731F481E090E0909344
:1038A00087038093860380918F09909190092091DE
:1038B0008603309187038217930774F0A985BA8530
:1038C000109709F05FC08B859C856D857E850E9471
:1038D000EB13009709F456C01092990310929803C5
:1038E00080E090E0DC018093CB089093CC08A0931B
:1038F000CD08B093CE088091CB089091CC08A091D0
:10390000CD08B091CE088093530990935409A093A9
:103910005509B09356098091530990915409A0918B
:103920005509B09156098093C1089093C208A0939D
:10393000C308B093C4086091C1087091C208809117
:10394000C3089091C4080E94FE3670938703609369
:10395000860362960FB6F894DEBF0FBECDBFCF913F
:10396000DF911F910F91FF90EF90DF90CF90BF906C
:10397000AF909F908F907F906F905F904F903F900F
:103980002F90089560907F09709080098090810940
:103990009090820920908309309084094090850995
:1039A00050908609E0908709F09088090091890974
:1039B00010918A096091A8037091A903882777FD67
:1039C0008095982F0E9431375B016C01C401B301CF
:1039D000A20191010E943E0D00CF2F923F924F9283
:1039E0005F926F927F928F929F92AF92BF92CF928F
:1039F000DF92EF92FF920F931F93DF93CF93CDB798
:103A0000DEB72C970FB6F894DEBF0FBECDBF5B01BB
:103A10003A013C832B831801FA82E98210929903C0
:103A200010929803109261031092600380916003DA
:103A3000909161039093900980938F0980918F09F1
:103A400090919009909387038093860360E070E0E3
:103A500080E090E0DC018B01000F111F000F111FAF
:103A600098012158364FF90180839183A283B38353
:103A70002081318142815381F801E359F64F20833F
:103A80003183428353836F5F7F4F6430710519F731
:103A900000D000D000D0EDB7FEB7319607E519E0B1
:103AA000ADB7BEB712961C930E93119786EE92E0B7
:103AB000938382838EEF92E0958384830E94E7351F
:103AC000EDB7FEB736960FB6F894FEBF0FBEEDBF4A
:103AD00080E067E0A8010E9467018091B80890919A
:103AE000B908A091BA08B091BB088D839E83AF83BB
:103AF000B887C501B30140E050E020E030E081012B
:103B0000E980FA800E94BC0FA114B10471F1611424
:103B1000710459F1B101882777FD8095982F0E9493
:103B200031377B018C0160916D0970916E09809134
:103B30006F0990917009209171093091720940913B
:103B40007309509174090E9467389B01AC01C80148
:103B5000B7010E9496369B01AC015F77C801B7019F
:103B60000E94F5380E94FE361B01C501B3014B814E
:103B70005C8120E030E08101E980FA800E94BC0F86
:103B80009093900980938F09C1010A966AE070E0D2
:103B90000E94933CCB01AA2797FDA095BA2F898755
:103BA0009A87AB87BC8780916003909161030097EF
:103BB000D1F7A1E0B0E0B0936103A09360038091DE
:103BC0008F099091900969817A810E94AB10EB81F5
:103BD000FC81309709F041C02091B8083091B908B4
:103BE0004091BA085091BB086D817E818F81988584
:103BF0000E941736662EA72EE82E092F69857A8532
:103C00008B859C850E9431379B01AC01662D7A2DF6
:103C10008E2D902F0E94F538E62EF72E082F192FA3
:103C2000C801B7019F7720E030E040EF51E40E94E7
:103C30005A38181654F40F2EF0E0EF2EF0E0FF2E55
:103C4000F0E00F2FF0E01F2FF02DE0928709F092A7
:103C500088090093890910938A09809186039091BD
:103C60008703009731F481E090E09093870380937D
:103C7000860380918F09909190092091860330915D
:103C8000870382179307F4F5109299031092980313
:103C900080E090E0DC018093CB089093CC08A09367
:103CA000CD08B093CE088091CB089091CC08A0911C
:103CB000CD08B091CE088093530990935409A093F6
:103CC0005509B09356098091530990915409A091D8
:103CD0005509B09156098093C1089093C208A093EA
:103CE000C308B093C4086091C1087091C208809164
:103CF000C3089091C4080E94FE36709387036093B6
:103D0000860372C08091C5089091C608009709F497
:103D100040C0109299031092980380E090E0DC017B
:103D20008093CB089093CC08A093CD08B093CE0895
:103D30008091CB089091CC08A091CD08B091CE088D
:103D40008093530990935409A0935509B093560951
:103D50008091530990915409A0915509B091560949
:103D60008093C1089093C208A093C308B093C4087D
:103D70006091C1087091C2088091C3089091C408F5
:103D80000E94FE36709387036093860381E090E083
:103D90002BC060907F09709080098090810990907D
:103DA00082092090830930908409409085095090C1
:103DB0008609E0908709F09088090091890910919F
:103DC0008A096091A8037091A903882777FD8095DF
:103DD000982F0E9431375B016C01C401B301A2012D
:103DE00091010E943E0DDFCE2C960FB6F894DEBFF7
:103DF0000FBECDBFCF91DF911F910F91FF90EF903C
:103E0000DF90CF90BF90AF909F908F907F906F90FA
:103E10005F904F903F902F9008952F923F924F9236
:103E20005F926F927F928F929F92AF92BF92CF924A
:103E3000DF92EF92FF920F931F93DF93CF93CDB753
:103E4000DEB72A970FB6F894DEBF0FBECDBF5C0178
:103E50004B013A011C830B83DE82CD8210929903C1
:103E60001092980310926103109260038091600396
:103E7000909161039093900980938F0980918F09AD
:103E800090919009909387038093860360E070E09F
:103E900080E090E0DC01A9019B01220F331F220F7B
:103EA000331FF901E158F64F80839183A283B383D6
:103EB0002080318042805380F901E359F64F2082FF
:103EC0003182428253826F5F7F4F6430710521F7E8
:103ED0001A0100D000D000D0EDB7FEB7319607E54B
:103EE00019E0ADB7BEB712961C930E93119786EEEC
:103EF00092E0938382838CE093E0958384830E9495
:103F0000E735EDB7FEB736960FB6F894FEBF0FBE95
:103F1000EDBF80E067E0A8010E94670180E090E0CB
:103F200060E070E0A30120E030E08701ED80FE80DA
:103F30000E94BC0F9A8389836091750970917609FC
:103F400080917709909178090E94FE363B01C50166
:103F5000B40140E050E020E030E08101EB80FC80E3
:103F60000E94BC0FA114B10471F18114910459F1A4
:103F7000B101882777FD8095982F0E9431377B010A
:103F80008C0160916D0970916E0980916F0990911B
:103F90007009209171093091720940917309509113
:103FA00074090E9467389B01AC01C801B7010E94E7
:103FB00096369B01AC015F77C801B7010E94F538C6
:103FC0000E94FE361B01C501B40140E050E020E034
:103FD00030E08101EB80FC800E94BC0F909390093F
:103FE00080938F09B301882777FD8095982F0E94D1
:103FF00031376093750970937609809377099093B0
:10400000780999248824772466248091600390910C
:1040100061030097D1F721E030E0309361032093F2
:10402000600389819A816D817E810E94AB10E0904E
:104030008709F09088090091890910918A09809177
:104040008F09909190096B817C810E94AB10C8010F
:10405000B7010E94FE36882777FD8095982F0E9431
:104060003137609387097093880980938909909309
:104070008A098091860390918703009731F481E04B
:1040800090E090938703809386032091860330917C
:10409000870380918F099091900982179307DCF430
:1040A00080E090E0DC018093830990938409A093E1
:1040B0008509B09386098091830990918409A09124
:1040C0008509B091860980937F0990938009A09318
:1040D0008109B0938209A981BA81A217B3075CF460
:1040E00080E090E0DC018093870990938809A09399
:1040F0008909B0938A096091870970918809809134
:10410000890990918A09905820E030E048EC52E407
:104110000E9496369B01AC01D401F3016B2F782DE0
:104120008F2F962D0E941836962E872E782E692E68
:1041300020907F0930908009409081095090820939
:104140008091830990918409A0918509B091860995
:104150008F839887A987BA87E0908709F0908809AC
:104160000091890910918A096091A8037091A903AF
:10417000882777FD8095982F0E943137D401F3016D
:104180002B2F3A2F4F2F5E2F0E9418365B016C01A8
:10419000C201B1012F81388549855A850E943E0DA3
:1041A000809186039091870320918F093091900927
:1041B000281739070CF029CFA981BA81A817B907A8
:1041C0000CF023CF109299031092980380E090E0B6
:1041D000DC018093CB089093CC08A093CD08B093DA
:1041E000CE088091CB089091CC08A091CD08B091D9
:1041F000CE088093530990935409A0935509B09326
:1042000056098091530990915409A0915509B09194
:1042100056098093C1089093C208A093C308B09335
:10422000C4086091C1087091C2088091C308909140
:10423000C4080E94FE3670938703609386032A9613
:104240000FB6F894DEBF0FBECDBFCF91DF911F91A7
:104250000F91FF90EF90DF90CF90BF90AF909F9025
:104260008F907F906F905F904F903F902F90089528
:104270002F923F924F925F926F927F928F929F9276
:10428000AF92BF92CF92DF92EF92FF920F931F9364
:10429000DF93CF93CDB7DEB7AA970FB6F894DEBF02
:1042A0000FBECDBF4C017A8369835C834B83390198
:1042B0001C870B87FE82ED82B886AF82109299032D
:1042C0001092980310926103109260038091600332
:1042D000909161039093900980938F0980918F0949
:1042E00090919009909387038093860320E030E0BB
:1042F0000F2EF0E0EF2EF0E0FF2EF0E00F2FF0E0B9
:104300001F2FF02DC901880F991F880F991FFC01DD
:10431000E158F64FE082F18202831383408151819C
:10432000628173818359964FDC014D935D936D9348
:104330007C9313972F5F3F4F2430310519F700D03E
:1043400000D000D0EDB7FEB7319607E519E0ADB764
:10435000BEB712961C930E93119786EE92E093834C
:10436000828380E193E0958384830E94E735EDB7F3
:10437000FEB736960FB6F894FEBF0FBEEDBF80E0D5
:1043800067E0A8010E94670128E230E049815A8174
:10439000429FC001439F900D529F900D1124209188
:1043A000A8033091A903820F931F68E671E00E9471
:1043B000933C843B910524F431E0232E312C03C03F
:1043C00022242A94322C80E090E06B817C8140E0B2
:1043D00050E020E030E08601EF80F8840E94BC0FBE
:1043E0009093900980938F09C301880F991F880FBC
:1043F000991F860D971D4BEF5FEF649E9001659EA0
:10440000300D749E300D1124269CB001279C700D38
:10441000369C700D11247A876987D4011896BA8B5F
:10442000A98BE981FA81E458FC4FFC8BEB8BA60148
:10443000662757FD6095762F4D8B5E8B6F8B788F3F
:10444000D094C194D108D394A601662757FD6095F6
:10445000762F498F5A8F6B8F7C8FAC01662757FD63
:104460006095762F4D8F5E8F6F8F78A3B901882767
:1044700077FD8095982F69A37AA38BA39CA38827A7
:104480009927881999099EA38DA380918F099091EE
:1044900090096F8178850E94AB10809160039091A4
:1044A0006103009791F7A1E0B0E0B0936103A0939E
:1044B0006003E989FA89E131F10508F049C0C401D6
:1044C00097FE02C08DA19EA1FC01E458FC4F208103
:1044D000293009F489C01814190444F06D817E81D3
:1044E0000E94EB13009709F47FC059C1808190E0CE
:1044F0002D813E81821793070CF476C049815A8141
:104500004815590509F04BC1C0908309D090840922
:10451000E0908509F09086096091A8037091A90345
:10452000882777FD8095982F0E9431374B015C01D9
:1045300060E070E0CB01A70196017B018C01650171
:1045400054010E943E0D51E35A95F1F7000027C136
:104550006DE08616910409F047C08091C5089091DE
:10456000C608009709F440C010929903109298036E
:1045700080E090E0DC018093CB089093CC08A0937E
:10458000CD08B093CE088091CB089091CC08A09133
:10459000CD08B091CE088093530990935409A0930D
:1045A0005509B09356098091530990915409A091EF
:1045B0005509B09156098093C1089093C208A09301
:1045C000C308B093C4086091C1087091C20880917B
:1045D000C3089091C4080E94FE36709387036093CD
:1045E000860381E090E018C1AB89BC898C91E82FEB
:1045F000F0E02B853C85E21BF30BFE87ED87CF01B6
:10460000F7FF03C0909581959F4F853091052CF160
:104610006D8D7E8D8F8D98A10E9431375B016C016D
:1046200069A17AA18BA19CA10E9431372B013C0189
:104630004D855E85BA01882777FD8095982F0E9469
:1046400031377B018C01C601B501A30192010E94A3
:1046500072140E94FE366B0102C0CD84DE846B8131
:104660007C8177FF04C0D094C194D108D3947CE0BE
:104670008716910449F4ED84FE84EE0CFF1CEE0CC9
:10468000FF1CCC24DD2402C0ED84FE846D897E896C
:104690008F89988D0E9431372B013C01698D7A8D6D
:1046A0008B8D9C8D0E9431376D877E878F87988B8D
:1046B000C70162E070E00E94933C882777FD8095F7
:1046C000982F0E9431377B018C01C301B2012D85E7
:1046D0003E854F8558890E9472142091830930913C
:1046E000840940918509509186092FA338A749A7CD
:1046F0005AA70E94FE3688279927861B970B829D12
:10470000B001839D700D929D700D1124882777FD57
:104710008095982F0E9431372B013C01D094C19491
:10472000D108D39489859A85C89EB001C99E700D21
:10473000D89E700D1124882777FD8095982F0E94B0
:1047400031377B018C016091A8037091A903882700
:1047500077FD8095982F0E9431375B016C01C30172
:10476000B2012FA138A549A55AA50E943E0D8091FE
:10477000860390918703009731F4A1E0B0E0B093F5
:104780008703A093860380918F09909190092091CF
:10479000860330918703821793070CF076CE109230
:1047A00099031092980380E090E0DC018093CB089D
:1047B0009093CC08A093CD08B093CE088091CB08FD
:1047C0009091CC08A091CD08B091CE088093530968
:1047D00090935409A0935509B093560980915309B9
:1047E00090915409A0915509B09156098093C10840
:1047F0009093C208A093C308B093C4086091C10805
:104800007091C2088091C3089091C4080E94FE363E
:104810007093870360938603AA960FB6F894DEBF61
:104820000FBECDBFCF91DF911F910F91FF90EF9001
:10483000DF90CF90BF90AF909F908F907F906F90C0
:104840005F904F903F902F9008952F923F924F92FC
:104850005F926F927F928F929F92AF92BF92CF9210
:10486000DF92EF92FF920F931F93DF93CF9300D0CD
:1048700000D000D0CDB7DEB75C014B013A01190181
:104880001A8309831092990310929803109261037E
:10489000109260038091600390916103909390095E
:1048A00080938F0980918F0990919009909387034D
:1048B0008093860360E070E080E090E0DC019B0183
:1048C000220F331F220F331FF901E158F64F808367
:1048D0009183A283B383E080F18002811381F90187
:1048E000E359F64FE082F182028313836F5F7F4FBB
:1048F0006430710521F700D000D000D0EDB7FEB7CD
:10490000319607E519E0ADB7BEB712961C930E932A
:10491000119786EE92E09383828385E193E09583FD
:1049200084830E94E735EDB7FEB736960FB6F8944C
:10493000FEBF0FBEEDBF80E067E0A8010E946701E7
:10494000C501B401A30120E030E08101E980FA80D3
:104950000E94BC0FB101882777FD8095982F0E9497
:1049600031377B018C0160916D0970916E098091E6
:104970006F099091700920917109309172094091ED
:104980007309509174090E9467389B01AC01C801FA
:10499000B7010E9496369B01AC015F77C801B70151
:1049A0000E94F5380E94FE367B018C01C501B401DE
:1049B000A30120E030E08701E980FA800E94BC0F6B
:1049C0009093900980938F099924882477246624F2
:1049D00080916003909161030097D1F721E030E06E
:1049E000309361032093600380918F099091900927
:1049F00069817A810E94AB10609187097091880962
:104A00008091890990918A092091860330918703CA
:104A10002115310531F4A1E0B0E0B0938703A093F4
:104A2000860320918F09309190094091860350911F
:104A30008703241735070CF056C010929903109283
:104A4000980380E090E0DC018093CB089093CC0841
:104A5000A093CD08B093CE088091CB089091CC085C
:104A6000A091CD08B091CE0880935309909354093A
:104A7000A0935509B0935609809153099091540918
:104A8000A0915509B09156098093C1089093C2082E
:104A9000A093C308B093C4086091C1087091C20884
:104AA0008091C3089091C4080E94FE3670938703DA
:104AB0006093860326960FB6F894DEBF0FBECDBF77
:104AC000CF91DF911F910F91FF90EF90DF90CF90EA
:104AD000BF90AF909F908F907F906F905F904F901E
:104AE0003F902F900895905820E030E048EC52E439
:104AF0000E9496369B01AC01D401F3016B2F782DF7
:104B00008F2F962D0E941836962E872E782E692E7E
:104B100020907F093090800940908109509082094F
:104B20008091830990918409A0918509B0918609AB
:104B30008B839C83AD83BE83E0908709F0908809C6
:104B40000091890910918A096091A8037091A903C5
:104B5000882777FD8095982F0E943137D401F30183
:104B60002B2F3A2F4F2F5E2F0E9418365B016C01BE
:104B7000C201B1012B813C814D815E810E943E0DBD
:104B800027CF2F923F924F925F926F927F928F9298
:104B90009F92AF92BF92CF92DF92EF92FF920F93CC
:104BA0001F93DF93CF9300D000D000D0CDB7DEB7F6
:104BB0007C01A62E972E1A0169011A83098310928F
:104BC00099031092980310926103109260038091F0
:104BD0006003909161039093900980938F09809175
:104BE0008F0990919009909387038093860360E0EA
:104BF00070E080E090E0DC014A2D592D9B01220FEE
:104C0000331F220F331FF901E158F64F8083918340
:104C1000A283B38380809180A280B3802359364FD2
:104C2000F90180829182A282B3826F5F7F4F6430EC
:104C3000710521F7A42E952E00D000D000D0EDB73D
:104C4000FEB7319607E519E0ADB7BEB712961C93D3
:104C50000E93119786EE92E0938382838BE193E02B
:104C6000958384830E94E735EDB7FEB736960FB67D
:104C7000F894FEBF0FBEEDBF80E067E0A8010E9480
:104C80006701B701882777FD8095982F0E943137FB
:104C90002BED3FE049E450E40E94F5387B018C01A4
:104CA0006A2D792D77FF03C0709561957F4F882716
:104CB00077FD8095982F0E9431379B01AC01C80188
:104CC000B7010E94F53820E030E044E353E40E944D
:104CD00096360E94FE362B013C0180E090E0B20146
:104CE0004A2D592D91018601E980FA800E94BC0F5E
:104CF000B601882777FD8095982F0E9431377B0178
:104D00008C01209171093091720940917309509181
:104D100074090E9496369B01AC015F77C801B70108
:104D20000E94F5380E94FE367B018C0180E090E005
:104D3000B2014A2D592D91018701E980FA800E9424
:104D4000BC0F9093900980938F09992444243324B5
:104D5000222488247724662455248091600390912E
:104D600061030097D1F721E030E030936103209395
:104D7000600380918F099091900969817A810E94E6
:104D8000AB10609187097091880980918909909191
:104D90008A09E0908B09F0908C0900918D0910919F
:104DA0008E0920918603309187032115310531F456
:104DB000A1E0B0E0B0938703A093860320918F0910
:104DC000309190094091860350918703241735074D
:104DD0000CF056C0109299031092980380E090E076
:104DE000DC018093CB089093CC08A093CD08B093BE
:104DF000CE088091CB089091CC08A091CD08B091BD
:104E0000CE088093530990935409A0935509B09309
:104E100056098091530990915409A0915509B09178
:104E200056098093C1089093C208A093C308B09319
:104E3000C4086091C1087091C2088091C308909124
:104E4000C4080E94FE3670938703609386032696FB
:104E50000FB6F894DEBF0FBECDBFCF91DF911F918B
:104E60000F91FF90EF90DF90CF90BF90AF909F9009
:104E70008F907F906F905F904F903F902F9008950C
:104E800020E030E048EC52E40E9496369B01AC01F1
:104E9000682D772D862D952D0E941836862E772E1B
:104EA000682E592EC801B701905820E030E048EC38
:104EB00052E40E9496369B01AC01F101692D742DDC
:104EC0008F2F922D0E941836962E472E382E292E7F
:104ED0008091830990918409A0918509B0918609F8
:104EE0008B839C83AD83BE83E0908B09F0908C090B
:104EF00000918D0910918E096091A8037091A9030A
:104F0000882777FD8095982F0E943137282D372DDF
:104F1000462D552D0E941836F101292D342D4F2F85
:104F20005E2F0E9418365B016C0160E070E0CB01DF
:104F30002B813C814D815E810E943E0D0ECF2F92D0
:104F40003F924F925F926F927F928F929F92AF9219
:104F5000BF92CF92DF92EF92FF920F931F93DF9356
:104F6000CF93CDB7DEB728970FB6F894DEBF0FBE4C
:104F7000CDBF6D837E838F8398877A0110929903CA
:104F80001092980310926103109260038091600365
:104F9000909161039093900980938F0980918F097C
:104FA00090919009909387038093860360E070E06E
:104FB00080E090E0DC018B01000F111F000F111F3A
:104FC00098012158364FF90180839183A283B383DE
:104FD0002081318142815381F801E359F64F2083CA
:104FE0003183428353836F5F7F4F6430710519F7BC
:104FF00000D000D000D0EDB7FEB7319607E519E03C
:10500000ADB7BEB712961C930E93119786EE92E041
:10501000938382838EE193E0958384830E94E735B6
:10502000EDB7FEB736960FB6F894FEBF0FBEEDBFD4
:1050300080E067E0A8010E9467018091B808909124
:10504000B908A091BA08B091BB0889839A83AB8351
:10505000BC838DEC9CECACE4BEE380937603909330
:105060007703A0937803B09379033701882477FC02
:105070008094982CF094E194F108F394170144245F
:1050800037FC4094542C8091600390916103009709
:10509000D1F7A1E0B0E0B0936103A0936003209149
:1050A000B8083091B9084091BA085091BB0869819D
:1050B0007A818B819C810E9417362D813E814F81A0
:1050C00058850E94173620E030E040E250E40E940C
:1050D000F538D62EC72EB82EA92EC401B3010E94D2
:1050E00031377B018C01C201B1010E9431379B0134
:1050F000AC01C801B701ED2DFC2DAB2DBA2D7F0100
:105100008D010E9472147B018C019F7720E030E0BA
:1051100040E05FE30E948F3618160CF458C01092DE
:1051200099031092980380E090E0DC018093CB0813
:105130009093CC08A093CD08B093CE088091CB0873
:105140009091CC08A091CD08B091CE0880935309DE
:1051500090935409A0935509B0935609809153092F
:1051600090915409A0915509B09156098093C108B6
:105170009093C208A093C308B093C4086091C1087B
:105180007091C2088091C3089091C4080E94FE36B5
:1051900070938703609386030E94CF1328960FB6FF
:1051A000F894DEBF0FBECDBFCF91DF911F910F915D
:1051B000FF90EF90DF90CF90BF90AF909F908F9037
:1051C0007F906F905F904F903F902F900895C8010F
:1051D000B701209176033091770340917803509185
:1051E00079030E94F5387B018C0160E070E0CB010F
:1051F0009B01AC015B016C010E943E0D44CF2F92DC
:105200003F924F925F926F927F928F929F92AF9256
:10521000BF92CF92DF92EF92FF920F931F93DF9393
:10522000CF93CDB7DEB76B970FB6F894DEBF0FBE46
:10523000CDBF5C013B014A012901180167011092B1
:105240009903109298031092610310926003809169
:105250006003909161039093900980938F098091EE
:105260008F0990919009909387038093860320E0A3
:1052700030E00F2EF0E0EF2EF0E0FF2EF0E00F2FE9
:10528000F0E01F2FF02DC901880F991F880F991F7B
:10529000FC01E158F64FE082F182028313834081E2
:1052A000518162817381FC01E359F64F4083518340
:1052B000628373832F5F3F4F2430310521F700D085
:1052C00000D000D0EDB7FEB7319607E519E0ADB7D5
:1052D000BEB712961C930E93119786EE92E09383BD
:1052E000828381E293E0958384830E94E735EDB762
:1052F000FEB736960FB6F894FEBF0FBEEDBF80E046
:1053000067E0A8010E9467018091B8089091B908F0
:10531000A091BA08B091BB088C839D83AE83BF83F4
:10532000C114D10409F45BC08DEC9CECACE4BEE389
:105330008093760390937703A0937803B0937903D7
:1053400092E0C916D1040CF44AC0C501B30140E093
:1053500050E020E030E0820171010E94BC0FA114F6
:10536000B10471F16114710459F1B201882777FD1C
:105370008095982F0E9431377B018C0160916D09D7
:1053800070916E0980916F09909170092091710957
:105390003091720940917309509174090E946738E5
:1053A0009B01AC01C801B7010E9496369B01AC017C
:1053B0005F77C801B7010E94F5380E94FE362B01C5
:1053C000C501B30140E050E020E030E0820171010E
:1053D0000E94BC0F9093900980938F0954C0C5011F
:1053E000B301A40120E030E0820171010E94BC0FF2
:1053F000B201882777FD8095982F0E9431377B0175
:105400008C0160916D0970916E0980916F09909186
:10541000700920917109309172094091730950917E
:1054200074090E9467389B01AC01C801B7010E9452
:1054300096369B01AC015F77C801B7010E94F53831
:105440000E94FE367B018C01C501B301A40120E05E
:1054500030E0870171010E94BC0F90939009809306
:105460008F09609175097091760980917709909103
:1054700078090E94FE36C62ED72ED7FE04C0D094DF
:10548000C194D108D394442419821A821B82C40186
:10549000AA2797FDA095BA2F888B998BAA8BBB8BD7
:1054A000C601AA2797FDA095BA2F8C8B9D8BAE8B3A
:1054B000BF8BD094C194D108D394C601AA2797FD7D
:1054C000A095BA2F888F998FAA8FBB8F8091600388
:1054D000909161030097D1F7A1E0B0E0B093610330
:1054E000A093600380918F0990919009B1010E946F
:1054F000AB102091B8083091B9084091BA0850918A
:10550000BB086C817D818E819F810E9417367B0153
:105510008C01688979898A899B890E9431379B012E
:10552000AC01C801B7010E94173620E030E040EA24
:1055300050E40E94F538D62EC72EA82E892E6C89ED
:105540007D898E899F890E9431377B018C01688D0E
:10555000798D8A8D9B8D0E9431379B01AC01C801EA
:10556000B701D601EB2EFA2E0A2D182D0E947214C7
:105570004B015C01209176033091770340917803D1
:10558000509179030E94F5389B01AC012093870963
:10559000309388094093890950938A09609187095B
:1055A000709188098091890990918A09905820E02A
:1055B00030E048EC52E40E9496369B01AC01A98190
:1055C0000A81EB80642D7A2F802F9E2D0E94183641
:1055D000E62E072FD82EC92E462E79838A839B83E9
:1055E0008091860390918703009731F4E1E0F0E029
:1055F000F0938703E093860380918F09909190093F
:10560000209186033091870382179307DCF480E0B2
:1056100090E0DC018093830990938409A09385092D
:10562000B09386098091830990918409A09185099E
:10563000B091860980937F0990938009A093810996
:10564000B0938209C501B4010E94FE3677FF03C002
:10565000709561957F4F882777FD8095982F0E94E0
:105660003137552453942DEC3CEC4CEC5DE30E9417
:105670008F36181614F455240BC080E090E0DC013E
:105680008093870990938809A0938909B0938A0928
:1056900080917F0990918009A0918109B091820940
:1056A00088879987AA87BB8780918309909184090D
:1056B000A0918509B09186098C879D87AE87BF87A9
:1056C00060908709709088098090890990908A0974
:1056D0006091A8037091A903882777FD8095982F82
:1056E0000E943137F6012E2D302F4F2F5C2D0E9456
:1056F00018365B016C01688579858A859B852C85C8
:105700003D854E855F85840173010E943E0D809129
:105710008F09909190092091860330918703821719
:1057200093070CF0D3CE552009F4D0CE10929903F4
:105730001092980380E090E0DC018093CB08909376
:10574000CC08A093CD08B093CE088091CB0890915F
:10575000CC08A091CD08B091CE08809353099093C6
:105760005409A0935509B09356098091530990911B
:105770005409A0915509B09156098093C10890939E
:10578000C208A093C308B093C4086091C108709187
:10579000C2088091C3089091C4080E94FE3670939D
:1057A0008703609386036B960FB6F894DEBF0FBE37
:1057B000CDBFCF91DF911F910F91FF90EF90DF90C0
:1057C000CF90BF90AF909F908F907F906F905F90A1
:1057D0004F903F902F9008952F923F924F925F925B
:1057E0006F927F928F929F92AF92BF92CF92DF92F1
:1057F000EF92FF920F931F93DF93CF93CDB7DEB756
:1058000068970FB6F894DEBF0FBECDBF9A83898329
:105810007E836D8358874F833A8729875701DC86BB
:10582000CB86109299031092980310926103109204
:10583000600380916003909161039093900980933D
:105840008F0980918F09909190099093870380939D
:10585000860360E070E080E090E0DC019B01220FB5
:10586000331F220F331FF901E158F64F80839183D4
:10587000A283B38360807180828093802359364FE6
:10588000F90160827182828293826F5F7F4F643000
:10589000710521F700D000D000D0EDB7FEB73196EA
:1058A000B7E5EB2EB9E0FB2EADB7BEB71296FC9272
:1058B000EE92119786EE92E09383828384E293E0E6
:1058C000958384830E94E735EDB7FEB736960FB611
:1058D000F894FEBF0FBEEDBF80E067E0A7010E9415
:1058E000670189819A81019629E030E0B9010E941F
:1058F000933C3C0189819A810896B9010E94933CAE
:105900001C018091B8089091B908A091BA08B09193
:10591000BB08898B9A8BAB8BBC8B17FD05C0A1E0B4
:10592000B0E0BC83AB8304C0EFEFFFEFFC83EB83FD
:1059300080E090E0B80140E050E020E030E08501F8
:10594000EB84FC840E94BC0F9093900980938F0994
:10595000C5010A966AE070E00E94933CCB01AA2739
:1059600097FDA095BA2F8D8B9E8BAF8BB88FD301EF
:10597000A458BC4FBE87AD87F101E458FC4FF88BAB
:10598000EF8780916003909161030097D1F721E048
:1059900030E0309361032093600380918F099091F0
:1059A00090096B857C850E94AB102091B8083091DE
:1059B000B9084091BA085091BB0869897A898B89E6
:1059C0009C890E941736662EA72EE82E092F6D8916
:1059D0007E898F89988D0E9431379B01AC01662D9D
:1059E0007A2D8E2D902F0E94F538E62EF72E082F57
:1059F000192FC801B7019F7720E030E040EF51E454
:105A00000E945A38181654F40F2EF0E0EF2EF0E0F2
:105A1000FF2EF0E00F2FF0E01F2FF02DAD85BE859B
:105A20008C9190E0ED81FE81E817F907CCF06C9144
:105A300070E06E1B7F0B882777FD8095982F0E9462
:105A4000313720E030E040E650E40E94F53820E0B5
:105A500030E0A9010E9418360E94FE365B0102C0A8
:105A6000AA24BB24AF85B8898C9190E0EF81F8859A
:105A7000E817F9072CF16C90B501882777FD809520
:105A8000982F0E9431375B016C01662D70E02F81E9
:105A90003885621B730B882777FD8095982F0E94AD
:105AA000313720E030E040E650EC0E94F5389B01B1
:105AB000AC01C601B5010E9418360E94FE365B019A
:105AC00089859A85009741F089819A8169857A85CF
:105AD0000E94EB130097C1F4809186039091870395
